{
  "address": "0x673cD70FA883394a1f3DEb3221937Ceb7C2618D7",
  "abi": [
    {
      "inputs": [
        {
          "internalType": "address",
          "name": "_gameManager",
          "type": "address"
        }
      ],
      "stateMutability": "nonpayable",
      "type": "constructor"
    },
    {
      "anonymous": false,
      "inputs": [
        {
          "indexed": false,
          "internalType": "uint256",
          "name": "cloneId",
          "type": "uint256"
        },
        {
          "indexed": false,
          "internalType": "uint256",
          "name": "price",
          "type": "uint256"
        }
      ],
      "name": "CloneListed",
      "type": "event"
    },
    {
      "anonymous": false,
      "inputs": [
        {
          "indexed": false,
          "internalType": "uint256",
          "name": "cloneId",
          "type": "uint256"
        }
      ],
      "name": "CloneListingCancelled",
      "type": "event"
    },
    {
      "anonymous": false,
      "inputs": [
        {
          "indexed": false,
          "internalType": "uint256",
          "name": "cloneId",
          "type": "uint256"
        },
        {
          "indexed": false,
          "internalType": "address",
          "name": "buyer",
          "type": "address"
        },
        {
          "indexed": false,
          "internalType": "address",
          "name": "seller",
          "type": "address"
        },
        {
          "indexed": false,
          "internalType": "uint256",
          "name": "amount",
          "type": "uint256"
        }
      ],
      "name": "ClonePurchased",
      "type": "event"
    },
    {
      "inputs": [
        {
          "internalType": "uint256",
          "name": "_cloneId",
          "type": "uint256"
        }
      ],
      "name": "buy",
      "outputs": [],
      "stateMutability": "nonpayable",
      "type": "function"
    },
    {
      "inputs": [
        {
          "internalType": "uint256",
          "name": "_cloneId",
          "type": "uint256"
        }
      ],
      "name": "cancel",
      "outputs": [],
      "stateMutability": "nonpayable",
      "type": "function"
    },
    {
      "inputs": [
        {
          "internalType": "uint256",
          "name": "_cloneId",
          "type": "uint256"
        },
        {
          "internalType": "uint256",
          "name": "_price",
          "type": "uint256"
        }
      ],
      "name": "list",
      "outputs": [],
      "stateMutability": "nonpayable",
      "type": "function"
    }
  ],
  "transactionHash": "0xc520ce73e0933807995f91e0c55ca6f4f3c8ae265b538f0bf49b23261114e5fb",
  "args": [
    "0x261D8c5e9742e6f7f1076Fa1F560894524e19cad"
  ],
  "numDeployments": 1,
  "solcInputHash": "dbed9630ff08f62ad5e23a1d6a18ff67",
  "bytecode": "0x608060405234801561001057600080fd5b5060405161177238038061177283398101604081905261002f91610054565b600080546001600160a01b0319166001600160a01b0392909216919091179055610082565b600060208284031215610065578081fd5b81516001600160a01b038116811461007b578182fd5b9392505050565b6116e1806100916000396000f3fe608060405234801561001057600080fd5b50600436106100415760003560e01c806340e58ee51461004657806350fd73671461005b578063d96a094a1461006e575b600080fd5b610059610054366004611519565b610081565b005b610059610069366004611549565b61033a565b61005961007c366004611519565b61075e565b60008054604051637733e61560e11b81523392849290916001600160a01b039091169063ee67cc2a906100b69060040161156a565b60206040518083038186803b1580156100ce57600080fd5b505afa1580156100e2573d6000803e3d6000fd5b505050506040513d601f19601f8201168201806040525081019061010691906112e8565b6040516308b82a1b60e21b8152600481018490529091506000906001600160a01b038316906322e0a86c9060240160006040518083038186803b15801561014c57600080fd5b505afa158015610160573d6000803e3d6000fd5b505050506040513d6000823e601f3d908101601f191682016040526101889190810190611325565b9050836001600160a01b031681600001516001600160a01b0316146101f45760405162461bcd60e51b815260206004820152601e60248201527f53746172205365656b6572733a20436c6f6e65206f776e6572206f6e6c79000060448201526064015b60405180910390fd5b60008054604051637733e61560e11b81526001600160a01b039091169063ee67cc2a906102239060040161156a565b60206040518083038186803b15801561023b57600080fd5b505afa15801561024f573d6000803e3d6000fd5b505050506040513d601f19601f8201168201806040525081019061027391906112e8565b6040516332b47e9d60e11b81526004810188905260006024820181905260448201529091506001600160a01b03821690636568fd3a90606401602060405180830381600087803b1580156102c657600080fd5b505af11580156102da573d6000803e3d6000fd5b505050506040513d601f19601f820116820180604052508101906102fe919061130b565b506040518681527f5b91ddf31d528e288e656db531a4e41b2ad5e56eee0c0d3e2261d6b413ed30d39060200160405180910390a1505050505050565b60008054604051637733e61560e11b81523392859290916001600160a01b039091169063ee67cc2a9061036f9060040161156a565b60206040518083038186803b15801561038757600080fd5b505afa15801561039b573d6000803e3d6000fd5b505050506040513d601f19601f820116820180604052508101906103bf91906112e8565b6040516308b82a1b60e21b8152600481018490529091506000906001600160a01b038316906322e0a86c9060240160006040518083038186803b15801561040557600080fd5b505afa158015610419573d6000803e3d6000fd5b505050506040513d6000823e601f3d908101601f191682016040526104419190810190611325565b9050836001600160a01b031681600001516001600160a01b0316146104a85760405162461bcd60e51b815260206004820152601e60248201527f53746172205365656b6572733a20436c6f6e65206f776e6572206f6e6c79000060448201526064016101eb565b60008054604051637733e61560e11b8152602060048201526005602482015264436c6f6e6560d81b60448201526001600160a01b039091169063ee67cc2a9060640160206040518083038186803b15801561050257600080fd5b505afa158015610516573d6000803e3d6000fd5b505050506040513d601f19601f8201168201806040525081019061053a91906112e8565b60405163e985e9c560e01b81523360048201523060248201529091506001600160a01b0382169063e985e9c59060440160206040518083038186803b15801561058257600080fd5b505afa158015610596573d6000803e3d6000fd5b505050506040513d601f19601f820116820180604052508101906105ba919061130b565b6106105760405162461bcd60e51b815260206004820152602160248201527f53746172205365656b6572733a204d61726b6574206e6f7420617070726f76656044820152601960fa1b60648201526084016101eb565b60008054604051637733e61560e11b81526001600160a01b039091169063ee67cc2a9061063f9060040161156a565b60206040518083038186803b15801561065757600080fd5b505afa15801561066b573d6000803e3d6000fd5b505050506040513d601f19601f8201168201806040525081019061068f91906112e8565b6040516332b47e9d60e11b8152600481018a905260016024820152604481018990529091506001600160a01b03821690636568fd3a90606401602060405180830381600087803b1580156106e257600080fd5b505af11580156106f6573d6000803e3d6000fd5b505050506040513d601f19601f8201168201806040525081019061071a919061130b565b5060408051898152602081018990527fbc64dfb86a726120b3380407b12a9306683ba9a10f2bcec091dcd8d03816ad26910160405180910390a15050505050505050565b60008054604051637733e61560e11b81526001600160a01b039091169063ee67cc2a9061078d9060040161156a565b60206040518083038186803b1580156107a557600080fd5b505afa1580156107b9573d6000803e3d6000fd5b505050506040513d601f19601f820116820180604052508101906107dd91906112e8565b6040516308b82a1b60e21b8152600481018490529091506000906001600160a01b038316906322e0a86c9060240160006040518083038186803b15801561082357600080fd5b505afa158015610837573d6000803e3d6000fd5b505050506040513d6000823e601f3d908101601f1916820160405261085f9190810190611325565b90508060200151151560011515146108b95760405162461bcd60e51b815260206004820152601f60248201527f53746172205365656b65723a20636c6f6e65206e6f7420666f722073616c650060448201526064016101eb565b60008054604051637733e61560e11b81526001600160a01b039091169063ee67cc2a906109019060040160208082526004908201526310d4915160e21b604082015260600190565b60206040518083038186803b15801561091957600080fd5b505afa15801561092d573d6000803e3d6000fd5b505050506040513d601f19601f8201168201806040525081019061095191906112e8565b60608301516040516370a0823160e01b8152336004820152919250906001600160a01b038316906370a082319060240160206040518083038186803b15801561099957600080fd5b505afa1580156109ad573d6000803e3d6000fd5b505050506040513d601f19601f820116820180604052508101906109d19190611531565b1015610a1f5760405162461bcd60e51b815260206004820152601d60248201527f53746172205365656b6572733a204e6f7420656e6f756768204352454400000060448201526064016101eb565b6060820151604051636eb1769f60e11b81523360048201523060248201526001600160a01b0383169063dd62ed3e9060440160206040518083038186803b158015610a6957600080fd5b505afa158015610a7d573d6000803e3d6000fd5b505050506040513d601f19601f82011682018060405250810190610aa19190611531565b1015610aef5760405162461bcd60e51b815260206004820181905260248201527f53746172205365656b6572733a20496d70726f70657220616c6c6f77616e636560448201526064016101eb565b60608201516040516323b872dd60e01b815233600482015230602482015260448101919091526001600160a01b038216906323b872dd90606401602060405180830381600087803b158015610b4357600080fd5b505af1158015610b57573d6000803e3d6000fd5b505050506040513d601f19601f82011682018060405250810190610b7b919061130b565b5060008054604051637733e61560e11b8152602060048201526006602482015265536b696c6c7360d01b60448201526001600160a01b039091169063ee67cc2a9060640160206040518083038186803b158015610bd757600080fd5b505afa158015610beb573d6000803e3d6000fd5b505050506040513d601f19601f82011682018060405250810190610c0f91906112e8565b604051633856524160e01b815260206004820152600b60248201526a21b7b6b83a3937b63632b960a91b60448201529091506000906001600160a01b03831690633856524190606401600060405180830381600087803b158015610c7257600080fd5b505af1158015610c86573d6000803e3d6000fd5b505050506040513d6000823e601f3d908101601f19168201604052610cae9190810190611417565b60008054604051637733e61560e11b81526020600482015260086024820152674c6561726e696e6760c01b604482015292935090916001600160a01b039091169063ee67cc2a9060640160206040518083038186803b158015610d1057600080fd5b505afa158015610d24573d6000803e3d6000fd5b505050506040513d601f19601f82011682018060405250810190610d4891906112e8565b6001600160a01b031663b7aab30d888460e001516040518363ffffffff1660e01b8152600401610d82929190918252602082015260400190565b6040805180830381600087803b158015610d9b57600080fd5b505af1158015610daf573d6000803e3d6000fd5b505050506040513d601f19601f82011682018060405250810190610dd391906113c9565b905060008060009054906101000a90046001600160a01b03166001600160a01b0316635c4ac5486040518163ffffffff1660e01b815260040160206040518083038186803b158015610e2457600080fd5b505afa158015610e38573d6000803e3d6000fd5b505050506040513d601f19601f82011682018060405250810190610e5c9190611531565b90506000600a83602001516005610e739190611631565b610e7d9190611611565b610e879083611650565b905060006064828960600151610e9d9190611631565b610ea79190611611565b90506000818960600151610ebb9190611650565b9050876001600160a01b031663a9059cbb60008054906101000a90046001600160a01b03166001600160a01b03166366c861196040518163ffffffff1660e01b815260040160206040518083038186803b158015610f1857600080fd5b505afa158015610f2c573d6000803e3d6000fd5b505050506040513d601f19601f82011682018060405250810190610f5091906112e8565b6040516001600160e01b031960e084901b1681526001600160a01b03909116600482015260248101859052604401602060405180830381600087803b158015610f9857600080fd5b505af1158015610fac573d6000803e3d6000fd5b505050506040513d601f19601f82011682018060405250810190610fd0919061130b565b50885160405163a9059cbb60e01b81526001600160a01b039182166004820152602481018390529089169063a9059cbb90604401602060405180830381600087803b15801561101e57600080fd5b505af1158015611032573d6000803e3d6000fd5b505050506040513d601f19601f82011682018060405250810190611056919061130b565b5060008054604051637733e61560e11b8152602060048201526005602482015264436c6f6e6560d81b60448201526001600160a01b039091169063ee67cc2a9060640160206040518083038186803b1580156110b157600080fd5b505afa1580156110c5573d6000803e3d6000fd5b505050506040513d601f19601f820116820180604052508101906110e991906112e8565b8a51604051632142170760e11b81526001600160a01b039182166004820152336024820152604481018f90529192508216906342842e0e90606401600060405180830381600087803b15801561113e57600080fd5b505af1158015611152573d6000803e3d6000fd5b505050507fac3f6f237a8423f5ef09628f148790ddb710d3643f4de996eabb53c5f45cf0f98c338c600001518d606001516040516111b394939291909384526001600160a01b03928316602085015291166040830152606082015260800190565b60405180910390a1505050505050505050505050565b600082601f8301126111d9578081fd5b60405160a0810181811067ffffffffffffffff821117156111fc576111fc61167d565b604052808360a08101861015611210578384fd5b835b6005811015611231578151835260209283019290910190600101611212565b509195945050505050565b8051801515811461124c57600080fd5b919050565b80516005811061124c57600080fd5b600082601f830112611270578081fd5b815167ffffffffffffffff81111561128a5761128a61167d565b602061129e601f8301601f191682016115e0565b82815285828487010111156112b1578384fd5b835b838110156112ce5785810183015182820184015282016112b3565b838111156112de57848385840101525b5095945050505050565b6000602082840312156112f9578081fd5b815161130481611693565b9392505050565b60006020828403121561131c578081fd5b6113048261123c565b600060208284031215611336578081fd5b815167ffffffffffffffff8082111561134d578283fd5b9083019060a08286031215611360578283fd5b611368611593565b825161137381611693565b81526113816020840161123c565b6020820152604083015182811115611397578485fd5b6113a387828601611260565b604083015250606083015160608201526080830151608082015280935050505092915050565b6000604082840312156113da578081fd5b6040516040810181811067ffffffffffffffff821117156113fd576113fd61167d565b604052825181526020928301519281019290925250919050565b600060208284031215611428578081fd5b815167ffffffffffffffff8082111561143f578283fd5b908301906101c08286031215611453578283fd5b61145b6115bc565b6114648361123c565b815261147260208401611251565b602082015261148360408401611251565b6040820152606083015182811115611499578485fd5b6114a587828601611260565b6060830152506080830151828111156114bc578485fd5b6114c887828601611260565b60808301525060a083015160a082015260c083015160c082015260e083015160e082015261010091508183015182820152610120915061150a868385016111c9565b91810191909152949350505050565b60006020828403121561152a578081fd5b5035919050565b600060208284031215611542578081fd5b5051919050565b6000806040838503121561155b578081fd5b50508035926020909101359150565b6020808252600f908201526e436c6f6e696e67466163696c69747960881b604082015260600190565b60405160a0810167ffffffffffffffff811182821017156115b6576115b661167d565b60405290565b604051610140810167ffffffffffffffff811182821017156115b6576115b661167d565b604051601f8201601f1916810167ffffffffffffffff811182821017156116095761160961167d565b604052919050565b60008261162c57634e487b7160e01b81526012600452602481fd5b500490565b600081600019048311821515161561164b5761164b611667565b500290565b60008282101561166257611662611667565b500390565b634e487b7160e01b600052601160045260246000fd5b634e487b7160e01b600052604160045260246000fd5b6001600160a01b03811681146116a857600080fd5b5056fea2646970667358221220da00ccfb0563d2f8144f9fa46b87db061f1e2b4231742ca6d109dca2920169f764736f6c63430008040033",
  "devdoc": {
    "kind": "dev",
    "methods": {
      "buy(uint256)": {
        "params": {
          "_cloneId": "the id of the clone that is being purchased"
        }
      },
      "cancel(uint256)": {
        "details": "only clone owner should be able to call this function",
        "params": {
          "_cloneId": "the id of the clone that is listed for sale"
        }
      },
      "list(uint256,uint256)": {
        "details": "only clone owner should be able to call this function for a given clone",
        "params": {
          "_cloneId": "the id of the clone to list for sale",
          "_price": "the price to list the clone for in CRED"
        }
      }
    },
    "version": 1
  },
  "userdoc": {
    "events": {
      "CloneListed(uint256,uint256)": {
        "notice": "emitted when a clone is listed on the market"
      },
      "CloneListingCancelled(uint256)": {
        "notice": "emitted when a clone is removed from the market"
      },
      "ClonePurchased(uint256,address,address,uint256)": {
        "notice": "emitted when a clone is purchased from the market"
      }
    },
    "kind": "user",
    "methods": {
      "buy(uint256)": {
        "notice": "Buys a clone listed on the market"
      },
      "cancel(uint256)": {
        "notice": "Removes an active clone listing from the market"
      },
      "list(uint256,uint256)": {
        "notice": "Lists a clone on the clone market"
      }
    },
    "version": 1
  },
  "storageLayout": {
    "storage": [
      {
        "astId": 12760,
        "contract": "src/CloneMarket.sol:CloneMarket",
        "label": "gameManager",
        "offset": 0,
        "slot": "0",
        "type": "t_contract(GameManager)11452"
      }
    ],
    "types": {
      "t_contract(GameManager)11452": {
        "encoding": "inplace",
        "label": "contract GameManager",
        "numberOfBytes": "20"
      }
    }
  }
}