{
  "address": "0x71F043a9072b5ec430C0a1DD766E1C8C613eDc5d",
  "abi": [
    {
      "inputs": [
        {
          "internalType": "address",
          "name": "_gameManager",
          "type": "address"
        }
      ],
      "stateMutability": "nonpayable",
      "type": "constructor"
    },
    {
      "anonymous": false,
      "inputs": [
        {
          "indexed": false,
          "internalType": "uint256",
          "name": "cloneId",
          "type": "uint256"
        },
        {
          "indexed": false,
          "internalType": "address",
          "name": "owner",
          "type": "address"
        }
      ],
      "name": "CloneCreated",
      "type": "event"
    },
    {
      "inputs": [
        {
          "internalType": "address",
          "name": "_newOwner",
          "type": "address"
        },
        {
          "internalType": "uint256",
          "name": "_cloneId",
          "type": "uint256"
        }
      ],
      "name": "changeOwner",
      "outputs": [
        {
          "internalType": "bool",
          "name": "",
          "type": "bool"
        }
      ],
      "stateMutability": "nonpayable",
      "type": "function"
    },
    {
      "inputs": [
        {
          "internalType": "uint256",
          "name": "_cloneId",
          "type": "uint256"
        },
        {
          "internalType": "bool",
          "name": "_forSale",
          "type": "bool"
        },
        {
          "internalType": "uint256",
          "name": "_price",
          "type": "uint256"
        }
      ],
      "name": "changeSalesState",
      "outputs": [
        {
          "internalType": "bool",
          "name": "",
          "type": "bool"
        }
      ],
      "stateMutability": "nonpayable",
      "type": "function"
    },
    {
      "inputs": [
        {
          "internalType": "uint256",
          "name": "_cloneId",
          "type": "uint256"
        },
        {
          "internalType": "string",
          "name": "_uri",
          "type": "string"
        }
      ],
      "name": "changeUri",
      "outputs": [
        {
          "internalType": "bool",
          "name": "",
          "type": "bool"
        }
      ],
      "stateMutability": "nonpayable",
      "type": "function"
    },
    {
      "inputs": [
        {
          "internalType": "string",
          "name": "_uri",
          "type": "string"
        }
      ],
      "name": "create",
      "outputs": [],
      "stateMutability": "payable",
      "type": "function"
    },
    {
      "inputs": [
        {
          "internalType": "uint256",
          "name": "_cloneId",
          "type": "uint256"
        },
        {
          "internalType": "enum IStats.Stat",
          "name": "_stat",
          "type": "uint8"
        },
        {
          "internalType": "uint256",
          "name": "_amount",
          "type": "uint256"
        }
      ],
      "name": "decreaseStat",
      "outputs": [
        {
          "internalType": "bool",
          "name": "",
          "type": "bool"
        }
      ],
      "stateMutability": "nonpayable",
      "type": "function"
    },
    {
      "inputs": [
        {
          "internalType": "uint256",
          "name": "_cloneId",
          "type": "uint256"
        }
      ],
      "name": "getCloneData",
      "outputs": [
        {
          "components": [
            {
              "internalType": "address",
              "name": "owner",
              "type": "address"
            },
            {
              "internalType": "bool",
              "name": "for_sale",
              "type": "bool"
            },
            {
              "internalType": "string",
              "name": "uri",
              "type": "string"
            },
            {
              "internalType": "uint256",
              "name": "price",
              "type": "uint256"
            },
            {
              "internalType": "uint256",
              "name": "id",
              "type": "uint256"
            }
          ],
          "internalType": "struct CloningFacility.CloneData",
          "name": "",
          "type": "tuple"
        }
      ],
      "stateMutability": "view",
      "type": "function"
    },
    {
      "inputs": [
        {
          "internalType": "uint256",
          "name": "_cloneId",
          "type": "uint256"
        },
        {
          "internalType": "enum IStats.Stat",
          "name": "_stat",
          "type": "uint8"
        }
      ],
      "name": "getCloneStatLevel",
      "outputs": [
        {
          "internalType": "uint256",
          "name": "",
          "type": "uint256"
        }
      ],
      "stateMutability": "view",
      "type": "function"
    },
    {
      "inputs": [
        {
          "internalType": "uint256",
          "name": "_cloneId",
          "type": "uint256"
        }
      ],
      "name": "getCloneUri",
      "outputs": [
        {
          "internalType": "string",
          "name": "",
          "type": "string"
        }
      ],
      "stateMutability": "view",
      "type": "function"
    },
    {
      "inputs": [
        {
          "internalType": "uint256",
          "name": "_cloneId",
          "type": "uint256"
        },
        {
          "internalType": "enum IStats.Stat",
          "name": "_stat",
          "type": "uint8"
        },
        {
          "internalType": "uint256",
          "name": "_amount",
          "type": "uint256"
        }
      ],
      "name": "increaseStat",
      "outputs": [
        {
          "internalType": "bool",
          "name": "",
          "type": "bool"
        }
      ],
      "stateMutability": "nonpayable",
      "type": "function"
    },
    {
      "stateMutability": "payable",
      "type": "receive"
    }
  ],
  "transactionHash": "0x768902ba9be7418befe776cab498a83381d3de348f3595111cf4b3fbe9506d0e",
  "args": [
    "0x261D8c5e9742e6f7f1076Fa1F560894524e19cad"
  ],
  "numDeployments": 1,
  "solcInputHash": "dbed9630ff08f62ad5e23a1d6a18ff67",
  "bytecode": "0x608060405234801561001057600080fd5b50604051611a63380380611a6383398101604081905261002f91610054565b600080546001600160a01b0319166001600160a01b0392909216919091179055610082565b600060208284031215610065578081fd5b81516001600160a01b038116811461007b578182fd5b9392505050565b6119d2806100916000396000f3fe60806040526004361061008a5760003560e01c806356df3db11161005957806356df3db11461024a57806379cfcbfb1461026a578063950a4b381461028a578063b6a46b3b146102b8578063e168813b146102cd57600080fd5b806322e0a86c146101975780633162d021146101cd57806342b9fe39146101fd578063491eae991461021d57600080fd5b366101925760008060009054906101000a90046001600160a01b03166001600160a01b03166366c861196040518163ffffffff1660e01b815260040160206040518083038186803b1580156100de57600080fd5b505afa1580156100f2573d6000803e3d6000fd5b505050506040513d601f19601f82011682018060405250810190610116919061157e565b6001600160a01b03163460405160006040518083038185875af1925050503d8060008114610160576040519150601f19603f3d011682016040523d82523d6000602084013e610165565b606091505b505090508061018f5760405162461bcd60e51b81526004016101869061181c565b60405180910390fd5b50005b600080fd5b3480156101a357600080fd5b506101b76101b2366004611623565b6102ed565b6040516101c49190611866565b60405180910390f35b3480156101d957600080fd5b506101ed6101e8366004611653565b610415565b60405190151581526020016101c4565b34801561020957600080fd5b506101ed6102183660046116b5565b6104e3565b34801561022957600080fd5b5061023d610238366004611623565b6105f6565b6040516101c491906117c8565b34801561025657600080fd5b506101ed6102653660046115a1565b61069d565b34801561027657600080fd5b506101ed6102853660046116b5565b6108a0565b34801561029657600080fd5b506102aa6102a536600461168a565b6109a4565b6040519081526020016101c4565b6102cb6102c63660046115e8565b610a09565b005b3480156102d957600080fd5b506101ed6102e83660046116e9565b61132f565b61032a6040518060a0016040528060006001600160a01b031681526020016000151581526020016060815260200160008152602001600081525090565b600082815260016020818152604092839020835160a08101855281546001600160a01b0381168252600160a01b900460ff16151592810192909252918201805491938401916103789061190f565b80601f01602080910402602001604051908101604052809291908181526020018280546103a49061190f565b80156103f15780601f106103c6576101008083540402835291602001916103f1565b820191906000526020600020905b8154815290600101906020018083116103d457829003601f168201915b50505050508152602001600282015481526020016003820154815250509050919050565b6000805460405163c04a7d0d60e01b81523360048201526001600160a01b039091169063c04a7d0d9060240160206040518083038186803b15801561045957600080fd5b505afa15801561046d573d6000803e3d6000fd5b505050506040513d601f19601f8201168201806040525081019061049191906115cc565b6104ad5760405162461bcd60e51b8152600401610186906117db565b5060008381526001602081905260409091208054841515600160a01b0260ff60a01b199091161781556002018290559392505050565b6000805460405163c04a7d0d60e01b81523360048201526001600160a01b039091169063c04a7d0d9060240160206040518083038186803b15801561052757600080fd5b505afa15801561053b573d6000803e3d6000fd5b505050506040513d601f19601f8201168201806040525081019061055f91906115cc565b61057b5760405162461bcd60e51b8152600401610186906117db565b600084815260036020526040812083918560048111156105ab57634e487b7160e01b600052602160045260246000fd5b60048111156105ca57634e487b7160e01b600052602160045260246000fd5b815260200190815260200160002060008282546105e791906118f8565b90915550600195945050505050565b6000818152600160208190526040822001805460609291906106179061190f565b80601f01602080910402602001604051908101604052809291908181526020018280546106439061190f565b80156106905780601f1061066557610100808354040283529160200191610690565b820191906000526020600020905b81548152906001019060200180831161067357829003601f168201915b5093979650505050505050565b6000805460405163c04a7d0d60e01b81523360048201526001600160a01b039091169063c04a7d0d9060240160206040518083038186803b1580156106e157600080fd5b505afa1580156106f5573d6000803e3d6000fd5b505050506040513d601f19601f8201168201806040525081019061071991906115cc565b6107355760405162461bcd60e51b8152600401610186906117db565b6000828152600160209081526040808320546001600160a01b03168352600282528083208054825181850281018501909352808352919290919083018282801561079e57602002820191906000526020600020905b81548152602001906001019080831161078a575b5050505050905060005b8151811161085057838282815181106107d157634e487b7160e01b600052603260045260246000fd5b6020026020010151141561083e578181815181106107ff57634e487b7160e01b600052603260045260246000fd5b60006020918202929092018101829052858252600181526040808320546001600160a01b0316835260028252909120835161083c928501906113f6565b505b6108496001826118c0565b90506107a8565b505050600081815260016020818152604080842080546001600160a01b0319166001600160a01b039790971696871790559483526002815293822080548083018255908352939091209092015590565b6000805460405163c04a7d0d60e01b81523360048201526001600160a01b039091169063c04a7d0d9060240160206040518083038186803b1580156108e457600080fd5b505afa1580156108f8573d6000803e3d6000fd5b505050506040513d601f19601f8201168201806040525081019061091c91906115cc565b6109385760405162461bcd60e51b8152600401610186906117db565b6000848152600360205260408120839185600481111561096857634e487b7160e01b600052602160045260246000fd5b600481111561098757634e487b7160e01b600052602160045260246000fd5b815260200190815260200160002060008282546105e791906118c0565b6000828152600360205260408120818360048111156109d357634e487b7160e01b600052602160045260246000fd5b60048111156109f257634e487b7160e01b600052602160045260246000fd5b815260200190815260200160002054905092915050565b60008054906101000a90046001600160a01b03166001600160a01b0316636c376cc56040518163ffffffff1660e01b815260040160206040518083038186803b158015610a5557600080fd5b505afa158015610a69573d6000803e3d6000fd5b505050506040513d601f19601f82011682018060405250810190610a8d91906115cc565b15610ae55760405162461bcd60e51b815260206004820152602260248201527f53746172205365656b6572733a20446f776e20666f72204d61696e74656e616e604482015261636560f01b6064820152608401610186565b60006001600160a01b031660008054906101000a90046001600160a01b03166001600160a01b0316637dbdf1f56040518163ffffffff1660e01b815260040160206040518083038186803b158015610b3c57600080fd5b505afa158015610b50573d6000803e3d6000fd5b505050506040513d601f19601f82011682018060405250810190610b74919061157e565b6001600160a01b03161415610bd75760405162461bcd60e51b815260206004820152602360248201527f53746172205365656b6572733a204e6f20636861696e6c696e6b2066656564206044820152621cd95d60ea1b6064820152608401610186565b60008054604051637733e61560e11b81526001600160a01b039091169063ee67cc2a90610c1f9060040160208082526004908201526310d4915160e21b604082015260600190565b60206040518083038186803b158015610c3757600080fd5b505afa158015610c4b573d6000803e3d6000fd5b505050506040513d601f19601f82011682018060405250810190610c6f919061157e565b905060008060009054906101000a90046001600160a01b03166001600160a01b0316637dbdf1f56040518163ffffffff1660e01b815260040160206040518083038186803b158015610cc057600080fd5b505afa158015610cd4573d6000803e3d6000fd5b505050506040513d601f19601f82011682018060405250810190610cf8919061157e565b90506000816001600160a01b031663feaf968c6040518163ffffffff1660e01b815260040160a06040518083038186803b158015610d3557600080fd5b505afa158015610d49573d6000803e3d6000fd5b505050506040513d601f19601f82011682018060405250810190610d6d919061172e565b50505091505060008160008054906101000a90046001600160a01b03166001600160a01b031663adddce366040518163ffffffff1660e01b815260040160206040518083038186803b158015610dc257600080fd5b505afa158015610dd6573d6000803e3d6000fd5b505050506040513d601f19601f82011682018060405250810190610dfa919061163b565b610e0491906118d8565b905080341015610e625760405162461bcd60e51b8152602060048201526024808201527f53746172205365656b6572733a20496e76616c6964207061796d656e7420616d6044820152631bdd5b9d60e21b6064820152608401610186565b604051600090309034908381818185875af1925050503d8060008114610ea4576040519150601f19603f3d011682016040523d82523d6000602084013e610ea9565b606091505b5050905080610eca5760405162461bcd60e51b81526004016101869061181c565b60008054604051637733e61560e11b8152602060048201526005602482015264436c6f6e6560d81b60448201526001600160a01b039091169063ee67cc2a9060640160206040518083038186803b158015610f2457600080fd5b505afa158015610f38573d6000803e3d6000fd5b505050506040513d601f19601f82011682018060405250810190610f5c919061157e565b6040516313db266360e31b81523360048201526001600160a01b039190911690639ed9331890602401602060405180830381600087803b158015610f9f57600080fd5b505af1158015610fb3573d6000803e3d6000fd5b505050506040513d601f19601f82011682018060405250810190610fd7919061163b565b6040805160a081018252338152600060208083018281528385018d815260608501849052608085018790528684526001808452959093208451815492511515600160a01b026001600160a81b03199093166001600160a01b03919091161791909117815591518051959650929485949293611056938501920190611441565b506060820151600282810191909155608092830151600390920191909155336000908152602091825260408082209385015184546001810186559483528383209094019390935580548351636bcf712560e01b8152935191936001600160a01b0390911692636bcf712592600480840193829003018186803b1580156110db57600080fd5b505afa1580156110ef573d6000803e3d6000fd5b505050506040513d601f19601f82011682018060405250810190611113919061163b565b11801561119857506000546040516360ad5e7160e11b81523360048201526001600160a01b039091169063c15abce29060240160206040518083038186803b15801561115e57600080fd5b505afa158015611172573d6000803e3d6000fd5b505050506040513d601f19601f8201168201806040525081019061119691906115cc565b155b156112ed57866001600160a01b03166340c10f193360008054906101000a90046001600160a01b03166001600160a01b0316636bcf71256040518163ffffffff1660e01b815260040160206040518083038186803b1580156111f957600080fd5b505afa15801561120d573d6000803e3d6000fd5b505050506040513d601f19601f82011682018060405250810190611231919061163b565b6040516001600160e01b031960e085901b1681526001600160a01b0390921660048301526024820152604401600060405180830381600087803b15801561127757600080fd5b505af115801561128b573d6000803e3d6000fd5b5050600054604051630790fc4b60e11b81523360048201526001600160a01b039091169250630f21f8969150602401600060405180830381600087803b1580156112d457600080fd5b505af11580156112e8573d6000803e3d6000fd5b505050505b604080518381523360208201527f15f4d592fc2960a5e30b8117f062ad921c54fe4eec96e5134f95c235f0b7a9c6910160405180910390a15050505050505050565b6000805460405163c04a7d0d60e01b81523360048201526001600160a01b039091169063c04a7d0d9060240160206040518083038186803b15801561137357600080fd5b505afa158015611387573d6000803e3d6000fd5b505050506040513d601f19601f820116820180604052508101906113ab91906115cc565b6113c75760405162461bcd60e51b8152600401610186906117db565b600083815260016020818152604090922084516113ec93919092019190850190611441565b5060019392505050565b828054828255906000526020600020908101928215611431579160200282015b82811115611431578251825591602001919060010190611416565b5061143d9291506114b4565b5090565b82805461144d9061190f565b90600052602060002090601f01602090048101928261146f5760008555611431565b82601f1061148857805160ff1916838001178555611431565b828001600101855582156114315791820182811115611431578251825591602001919060010190611416565b5b8082111561143d57600081556001016114b5565b8035600581106114d857600080fd5b919050565b600082601f8301126114ed578081fd5b813567ffffffffffffffff8082111561150857611508611960565b604051601f8301601f19908116603f0116810190828211818310171561153057611530611960565b81604052838152866020858801011115611548578485fd5b8360208701602083013792830160200193909352509392505050565b805169ffffffffffffffffffff811681146114d857600080fd5b60006020828403121561158f578081fd5b815161159a81611976565b9392505050565b600080604083850312156115b3578081fd5b82356115be81611976565b946020939093013593505050565b6000602082840312156115dd578081fd5b815161159a8161198e565b6000602082840312156115f9578081fd5b813567ffffffffffffffff81111561160f578182fd5b61161b848285016114dd565b949350505050565b600060208284031215611634578081fd5b5035919050565b60006020828403121561164c578081fd5b5051919050565b600080600060608486031215611667578081fd5b8335925060208401356116798161198e565b929592945050506040919091013590565b6000806040838503121561169c578182fd5b823591506116ac602084016114c9565b90509250929050565b6000806000606084860312156116c9578283fd5b833592506116d9602085016114c9565b9150604084013590509250925092565b600080604083850312156116fb578182fd5b82359150602083013567ffffffffffffffff811115611718578182fd5b611724858286016114dd565b9150509250929050565b600080600080600060a08688031215611745578081fd5b61174e86611564565b945060208601519350604086015192506060860151915061177160808701611564565b90509295509295909350565b60008151808452815b818110156117a257602081850181015186830182015201611786565b818111156117b35782602083870101525b50601f01601f19169290920160200192915050565b60208152600061159a602083018461177d565b60208082526021908201527f53746172205365656b6572733a204e6f7420612067616d6520636f6e747261636040820152601d60fa1b606082015260800190565b6020808252602a908201527f53746172205365656b6572733a204661696c656420746f2073656e642070617960408201526936b2b73a103a37b5b2b760b11b606082015260800190565b6020815260018060a01b0382511660208201526020820151151560408201526000604083015160a060608401526118a060c084018261177d565b905060608401516080840152608084015160a08401528091505092915050565b600082198211156118d3576118d361194a565b500190565b6000826118f357634e487b7160e01b81526012600452602481fd5b500490565b60008282101561190a5761190a61194a565b500390565b600181811c9082168061192357607f821691505b6020821081141561194457634e487b7160e01b600052602260045260246000fd5b50919050565b634e487b7160e01b600052601160045260246000fd5b634e487b7160e01b600052604160045260246000fd5b6001600160a01b038116811461198b57600080fd5b50565b801515811461198b57600080fdfea2646970667358221220ae3b9c589f6c998e4a70c0f9632715d906c97270316b894e8b062736104c2b4064736f6c63430008040033",
  "devdoc": {
    "kind": "dev",
    "methods": {
      "changeOwner(address,uint256)": {
        "details": "should only be callable by other game contracts",
        "params": {
          "_cloneId": "cloneId of the",
          "_newOwner": "address of the new owner"
        },
        "returns": {
          "_0": "bool success"
        }
      },
      "changeSalesState(uint256,bool,uint256)": {
        "details": "should only be callable by other game contracts",
        "params": {
          "_cloneId": "uint256 clone id",
          "_forSale": "bool sale state",
          "_price": "uint256 price of clone"
        },
        "returns": {
          "_0": "bool success"
        }
      },
      "changeUri(uint256,string)": {
        "details": "should only be callable by other game contracts",
        "params": {
          "_cloneId": "uint256 cloneId",
          "_uri": "string ipfs url for json endpoint"
        }
      },
      "create(string)": {
        "details": "gets the price of the chains base token from chainlink",
        "params": {
          "_uri": "json IPFS endpoint"
        }
      },
      "decreaseStat(uint256,uint8,uint256)": {
        "details": "should only be callable by other game contracts",
        "params": {
          "_amount": "uin256 amount to decrease stat by",
          "_cloneId": "clone id",
          "_stat": "stat enum"
        },
        "returns": {
          "_0": "bool success"
        }
      },
      "getCloneData(uint256)": {
        "details": "should only be callable by other game contracts",
        "params": {
          "_cloneId": "uint256 cloneId"
        },
        "returns": {
          "_0": "CloneData struct"
        }
      },
      "getCloneStatLevel(uint256,uint8)": {
        "details": "should only be callable by other game contracts",
        "params": {
          "_cloneId": "clone id",
          "_stat": "clone stat to retrieve level of"
        },
        "returns": {
          "_0": "uint256 clone stat level"
        }
      },
      "getCloneUri(uint256)": {
        "details": "should be IPFS JSON endpoint",
        "params": {
          "_cloneId": "clone id"
        },
        "returns": {
          "_0": "string clone uri"
        }
      },
      "increaseStat(uint256,uint8,uint256)": {
        "details": "should only be callable by other game contracts",
        "params": {
          "_amount": "uin256 amount to increase stat by",
          "_cloneId": "clone id",
          "_stat": "stat enum"
        },
        "returns": {
          "_0": "bool success"
        }
      }
    },
    "version": 1
  },
  "userdoc": {
    "kind": "user",
    "methods": {
      "changeOwner(address,uint256)": {
        "notice": "changes the owner of a given clone to the given address"
      },
      "changeSalesState(uint256,bool,uint256)": {
        "notice": "changes the owner of a given clone to the given address"
      },
      "changeUri(uint256,string)": {
        "notice": "changes the uri for a given clone id"
      },
      "create(string)": {
        "notice": "Creates a new clone"
      },
      "decreaseStat(uint256,uint8,uint256)": {
        "notice": "decreases a clones stat by the given amount"
      },
      "getCloneData(uint256)": {
        "notice": "changes the uri for a given clone id"
      },
      "getCloneStatLevel(uint256,uint8)": {
        "notice": "gets the level for a specific stat on a specific clone"
      },
      "getCloneUri(uint256)": {
        "notice": "gets clone URI"
      },
      "increaseStat(uint256,uint8,uint256)": {
        "notice": "increases a clones stat by the given amount"
      }
    },
    "notice": "this contract serves as the central location for clone s",
    "version": 1
  },
  "storageLayout": {
    "storage": [
      {
        "astId": 12760,
        "contract": "src/CloningFacility.sol:CloningFacility",
        "label": "gameManager",
        "offset": 0,
        "slot": "0",
        "type": "t_contract(GameManager)11452"
      },
      {
        "astId": 10633,
        "contract": "src/CloningFacility.sol:CloningFacility",
        "label": "cloneData",
        "offset": 0,
        "slot": "1",
        "type": "t_mapping(t_uint256,t_struct(CloneData)10627_storage)"
      },
      {
        "astId": 10639,
        "contract": "src/CloningFacility.sol:CloningFacility",
        "label": "clonesOwnedByAddress",
        "offset": 0,
        "slot": "2",
        "type": "t_mapping(t_address,t_array(t_uint256)dyn_storage)"
      },
      {
        "astId": 10647,
        "contract": "src/CloningFacility.sol:CloningFacility",
        "label": "stats",
        "offset": 0,
        "slot": "3",
        "type": "t_mapping(t_uint256,t_mapping(t_enum(Stat)12751,t_uint256))"
      }
    ],
    "types": {
      "t_address": {
        "encoding": "inplace",
        "label": "address",
        "numberOfBytes": "20"
      },
      "t_array(t_uint256)dyn_storage": {
        "base": "t_uint256",
        "encoding": "dynamic_array",
        "label": "uint256[]",
        "numberOfBytes": "32"
      },
      "t_bool": {
        "encoding": "inplace",
        "label": "bool",
        "numberOfBytes": "1"
      },
      "t_contract(GameManager)11452": {
        "encoding": "inplace",
        "label": "contract GameManager",
        "numberOfBytes": "20"
      },
      "t_enum(Stat)12751": {
        "encoding": "inplace",
        "label": "enum IStats.Stat",
        "numberOfBytes": "1"
      },
      "t_mapping(t_address,t_array(t_uint256)dyn_storage)": {
        "encoding": "mapping",
        "key": "t_address",
        "label": "mapping(address => uint256[])",
        "numberOfBytes": "32",
        "value": "t_array(t_uint256)dyn_storage"
      },
      "t_mapping(t_enum(Stat)12751,t_uint256)": {
        "encoding": "mapping",
        "key": "t_enum(Stat)12751",
        "label": "mapping(enum IStats.Stat => uint256)",
        "numberOfBytes": "32",
        "value": "t_uint256"
      },
      "t_mapping(t_uint256,t_mapping(t_enum(Stat)12751,t_uint256))": {
        "encoding": "mapping",
        "key": "t_uint256",
        "label": "mapping(uint256 => mapping(enum IStats.Stat => uint256))",
        "numberOfBytes": "32",
        "value": "t_mapping(t_enum(Stat)12751,t_uint256)"
      },
      "t_mapping(t_uint256,t_struct(CloneData)10627_storage)": {
        "encoding": "mapping",
        "key": "t_uint256",
        "label": "mapping(uint256 => struct CloningFacility.CloneData)",
        "numberOfBytes": "32",
        "value": "t_struct(CloneData)10627_storage"
      },
      "t_string_storage": {
        "encoding": "bytes",
        "label": "string",
        "numberOfBytes": "32"
      },
      "t_struct(CloneData)10627_storage": {
        "encoding": "inplace",
        "label": "struct CloningFacility.CloneData",
        "members": [
          {
            "astId": 10618,
            "contract": "src/CloningFacility.sol:CloningFacility",
            "label": "owner",
            "offset": 0,
            "slot": "0",
            "type": "t_address"
          },
          {
            "astId": 10620,
            "contract": "src/CloningFacility.sol:CloningFacility",
            "label": "for_sale",
            "offset": 20,
            "slot": "0",
            "type": "t_bool"
          },
          {
            "astId": 10622,
            "contract": "src/CloningFacility.sol:CloningFacility",
            "label": "uri",
            "offset": 0,
            "slot": "1",
            "type": "t_string_storage"
          },
          {
            "astId": 10624,
            "contract": "src/CloningFacility.sol:CloningFacility",
            "label": "price",
            "offset": 0,
            "slot": "2",
            "type": "t_uint256"
          },
          {
            "astId": 10626,
            "contract": "src/CloningFacility.sol:CloningFacility",
            "label": "id",
            "offset": 0,
            "slot": "3",
            "type": "t_uint256"
          }
        ],
        "numberOfBytes": "128"
      },
      "t_uint256": {
        "encoding": "inplace",
        "label": "uint256",
        "numberOfBytes": "32"
      }
    }
  }
}