{
  "address": "0x057ef64E23666F000b34aE31332854aCBd1c8544",
  "abi": [
    {
      "inputs": [
        {
          "internalType": "address",
          "name": "_admin",
          "type": "address"
        },
        {
          "internalType": "address",
          "name": "_chainlinkFeed",
          "type": "address"
        },
        {
          "internalType": "address payable",
          "name": "_federation",
          "type": "address"
        }
      ],
      "stateMutability": "nonpayable",
      "type": "constructor"
    },
    {
      "anonymous": false,
      "inputs": [
        {
          "indexed": false,
          "internalType": "string",
          "name": "name",
          "type": "string"
        },
        {
          "indexed": false,
          "internalType": "address",
          "name": "contractAddress",
          "type": "address"
        }
      ],
      "name": "AddContract",
      "type": "event"
    },
    {
      "anonymous": false,
      "inputs": [
        {
          "indexed": false,
          "internalType": "address",
          "name": "oldAdmin",
          "type": "address"
        },
        {
          "indexed": false,
          "internalType": "address",
          "name": "newAdmin",
          "type": "address"
        }
      ],
      "name": "AdminUpdated",
      "type": "event"
    },
    {
      "anonymous": false,
      "inputs": [
        {
          "indexed": false,
          "internalType": "address",
          "name": "newAddress",
          "type": "address"
        }
      ],
      "name": "ChainlinkFeedUpdated",
      "type": "event"
    },
    {
      "anonymous": false,
      "inputs": [
        {
          "indexed": false,
          "internalType": "address",
          "name": "federation",
          "type": "address"
        }
      ],
      "name": "FederationUpdated",
      "type": "event"
    },
    {
      "anonymous": false,
      "inputs": [
        {
          "indexed": false,
          "internalType": "bool",
          "name": "status",
          "type": "bool"
        }
      ],
      "name": "MaintenanceUpdated",
      "type": "event"
    },
    {
      "anonymous": false,
      "inputs": [
        {
          "indexed": false,
          "internalType": "address",
          "name": "player",
          "type": "address"
        }
      ],
      "name": "ReceivedStartingCred",
      "type": "event"
    },
    {
      "anonymous": false,
      "inputs": [
        {
          "indexed": false,
          "internalType": "string",
          "name": "name",
          "type": "string"
        },
        {
          "indexed": false,
          "internalType": "address",
          "name": "contractAddress",
          "type": "address"
        }
      ],
      "name": "RemoveContract",
      "type": "event"
    },
    {
      "anonymous": false,
      "inputs": [
        {
          "indexed": false,
          "internalType": "uint256",
          "name": "amount",
          "type": "uint256"
        }
      ],
      "name": "SalesTaxUpdated",
      "type": "event"
    },
    {
      "anonymous": false,
      "inputs": [
        {
          "indexed": false,
          "internalType": "uint256",
          "name": "amount",
          "type": "uint256"
        }
      ],
      "name": "StartingCredUpdated",
      "type": "event"
    },
    {
      "inputs": [
        {
          "internalType": "string",
          "name": "_name",
          "type": "string"
        },
        {
          "internalType": "address",
          "name": "_address",
          "type": "address"
        }
      ],
      "name": "addContract",
      "outputs": [],
      "stateMutability": "nonpayable",
      "type": "function"
    },
    {
      "inputs": [],
      "name": "admin",
      "outputs": [
        {
          "internalType": "address",
          "name": "",
          "type": "address"
        }
      ],
      "stateMutability": "view",
      "type": "function"
    },
    {
      "inputs": [],
      "name": "chainlinkFeed",
      "outputs": [
        {
          "internalType": "address",
          "name": "",
          "type": "address"
        }
      ],
      "stateMutability": "view",
      "type": "function"
    },
    {
      "inputs": [
        {
          "internalType": "address",
          "name": "_newAdmin",
          "type": "address"
        }
      ],
      "name": "changeAdmin",
      "outputs": [],
      "stateMutability": "nonpayable",
      "type": "function"
    },
    {
      "inputs": [],
      "name": "cloneCost",
      "outputs": [
        {
          "internalType": "uint256",
          "name": "",
          "type": "uint256"
        }
      ],
      "stateMutability": "view",
      "type": "function"
    },
    {
      "inputs": [
        {
          "internalType": "string",
          "name": "",
          "type": "string"
        }
      ],
      "name": "contractAddresses",
      "outputs": [
        {
          "internalType": "address",
          "name": "",
          "type": "address"
        }
      ],
      "stateMutability": "view",
      "type": "function"
    },
    {
      "inputs": [],
      "name": "federation",
      "outputs": [
        {
          "internalType": "address payable",
          "name": "",
          "type": "address"
        }
      ],
      "stateMutability": "view",
      "type": "function"
    },
    {
      "inputs": [
        {
          "internalType": "address",
          "name": "",
          "type": "address"
        }
      ],
      "name": "hasReceivedStartingCred",
      "outputs": [
        {
          "internalType": "bool",
          "name": "",
          "type": "bool"
        }
      ],
      "stateMutability": "view",
      "type": "function"
    },
    {
      "inputs": [
        {
          "internalType": "address",
          "name": "",
          "type": "address"
        }
      ],
      "name": "isGameContract",
      "outputs": [
        {
          "internalType": "bool",
          "name": "",
          "type": "bool"
        }
      ],
      "stateMutability": "view",
      "type": "function"
    },
    {
      "inputs": [],
      "name": "maintenance",
      "outputs": [
        {
          "internalType": "bool",
          "name": "",
          "type": "bool"
        }
      ],
      "stateMutability": "view",
      "type": "function"
    },
    {
      "inputs": [
        {
          "internalType": "string",
          "name": "_name",
          "type": "string"
        }
      ],
      "name": "removeContract",
      "outputs": [],
      "stateMutability": "nonpayable",
      "type": "function"
    },
    {
      "inputs": [],
      "name": "salesTax",
      "outputs": [
        {
          "internalType": "uint256",
          "name": "",
          "type": "uint256"
        }
      ],
      "stateMutability": "view",
      "type": "function"
    },
    {
      "inputs": [
        {
          "internalType": "address",
          "name": "_feedContract",
          "type": "address"
        }
      ],
      "name": "setChainlinkFeed",
      "outputs": [],
      "stateMutability": "nonpayable",
      "type": "function"
    },
    {
      "inputs": [
        {
          "internalType": "address payable",
          "name": "_newFederationAddress",
          "type": "address"
        }
      ],
      "name": "setFederation",
      "outputs": [],
      "stateMutability": "nonpayable",
      "type": "function"
    },
    {
      "inputs": [
        {
          "internalType": "bool",
          "name": "_status",
          "type": "bool"
        }
      ],
      "name": "setMaintenance",
      "outputs": [],
      "stateMutability": "nonpayable",
      "type": "function"
    },
    {
      "inputs": [
        {
          "internalType": "uint256",
          "name": "_amount",
          "type": "uint256"
        }
      ],
      "name": "setSalesTax",
      "outputs": [],
      "stateMutability": "nonpayable",
      "type": "function"
    },
    {
      "inputs": [
        {
          "internalType": "uint256",
          "name": "_amount",
          "type": "uint256"
        }
      ],
      "name": "setStartingCred",
      "outputs": [],
      "stateMutability": "nonpayable",
      "type": "function"
    },
    {
      "inputs": [],
      "name": "startingCred",
      "outputs": [
        {
          "internalType": "uint256",
          "name": "",
          "type": "uint256"
        }
      ],
      "stateMutability": "view",
      "type": "function"
    },
    {
      "inputs": [
        {
          "internalType": "address",
          "name": "_player",
          "type": "address"
        }
      ],
      "name": "updateHasReceivedStartingCred",
      "outputs": [],
      "stateMutability": "nonpayable",
      "type": "function"
    }
  ],
  "transactionHash": "0x28a4e2c4c7ef2b45e26298072b9bdd8f623cf64589dafed1f2504fb675db54fd",
  "args": [
    "0xf39Fd6e51aad88F6F4ce6aB8827279cffFb92266",
    "0x0A77230d17318075983913bC2145DB16C7366156",
    "0x90F79bf6EB2c4f870365E785982E1f101E93b906"
  ],
  "numDeployments": 1,
  "solcInputHash": "dbed9630ff08f62ad5e23a1d6a18ff67",
  "bytecode": "0x60806040526002805460ff60a01b1916905560646003556005600481905561271090553480156200002f57600080fd5b5060405162001093380380620010938339810160408190526200005291620002dc565b6001600160a01b038316620000ba5760405162461bcd60e51b8152602060048201526024808201527f53746172205365656b6572733a2041646d696e206164647265737320726571756044820152631a5c995960e21b60648201526084015b60405180910390fd5b6001600160a01b038216620001285760405162461bcd60e51b815260206004820152602d60248201527f53746172205365656b6572733a20436861696e6c696e6b20466565642061646460448201526c1c995cdcc81c995c5d5a5c9959609a1b6064820152608401620000b1565b6001600160a01b038116620001925760405162461bcd60e51b815260206004820152602960248201527f53746172205365656b6572733a2046656465726174696f6e2061646472657373604482015268081c995c5d5a5c995960ba1b6064820152608401620000b1565b620001cc6040518060400160405280600b81526020016a31b7b739ba393ab1ba37b960a91b815250846200026a60201b620009911760201c565b600080546001600160a01b0319166001600160a01b03851690811790915560408051808201909152601581527f636f6e7374727563746f722061667465722073657400000000000000000000006020808301919091526200023792906200026a811b6200099117901c565b600180546001600160a01b039384166001600160a01b0319918216179091556002805492909316911617905550620003af565b620002b78282604051602401620002839291906200032f565b60408051601f198184030181529190526020810180516001600160e01b0390811663319af33360e01b17909152620002bb16565b5050565b80516a636f6e736f6c652e6c6f67602083016000808483855afa5050505050565b600080600060608486031215620002f1578283fd5b8351620002fe8162000396565b6020850151909350620003118162000396565b6040850151909250620003248162000396565b809150509250925092565b6040815260008351806040840152815b818110156200035e57602081870181015160608684010152016200033f565b81811115620003705782606083860101525b506001600160a01b0393909316602083015250601f91909101601f191601606001919050565b6001600160a01b0381168114620003ac57600080fd5b50565b610cd480620003bf6000396000f3fe608060405234801561001057600080fd5b50600436106101215760003560e01c80638ea121a3116100ad578063bf5b601611610071578063bf5b601614610250578063c04a7d0d14610263578063c15abce214610286578063ee67cc2a146102a9578063f851a440146102dd57600080fd5b80638ea121a3146101fb5780638f2839701461020e57806397623b5814610221578063984f64e414610234578063adddce361461024757600080fd5b8063612f2f37116100f4578063612f2f371461017d57806366c86119146101905780636bcf7125146101bb5780636c376cc5146101c45780637dbdf1f5146101e857600080fd5b80630f21f896146101265780630ffa1e301461013b5780634cf3edcd1461014e5780635c4ac54814610161575b600080fd5b610139610134366004610a82565b6102f0565b005b610139610149366004610a82565b610383565b61013961015c366004610b50565b61042f565b61016a60045481565b6040519081526020015b60405180910390f35b61013961018b366004610aa5565b6104c3565b6002546101a3906001600160a01b031681565b6040516001600160a01b039091168152602001610174565b61016a60055481565b6002546101d890600160a01b900460ff1681565b6040519015158152602001610174565b6001546101a3906001600160a01b031681565b610139610209366004610a82565b61056f565b61013961021c366004610a82565b61061c565b61013961022f366004610ac5565b6106d0565b610139610242366004610b50565b61081a565b61016a60035481565b61013961025e366004610b00565b6108ad565b6101d8610271366004610a82565b60086020526000908152604090205460ff1681565b6101d8610294366004610a82565b60076020526000908152604090205460ff1681565b6101a36102b7366004610ac5565b80516020818301810180516006825292820191909301209152546001600160a01b031681565b6000546101a3906001600160a01b031681565b3360009081526008602052604090205460ff166103285760405162461bcd60e51b815260040161031f90610bc8565b60405180910390fd5b6001600160a01b038116600081815260076020908152604091829020805460ff1916600117905590519182527fde2f137747bca9259c9320a35caa6986224867bd958b673ce80f1f1dd764f28191015b60405180910390a150565b60408051808201909152600881526736b7b234b334b2b960c11b60208201526000546103b891906001600160a01b0316610991565b6000546001600160a01b031633146103e25760405162461bcd60e51b815260040161031f90610c09565b600280546001600160a01b0319166001600160a01b0383169081179091556040519081527e19d8f027950e675709dec9b32af7dae9d008e6b5bccb3952bdf60059bc5f4d90602001610378565b60408051808201909152600881526736b7b234b334b2b960c11b602082015260005461046491906001600160a01b0316610991565b6000546001600160a01b0316331461048e5760405162461bcd60e51b815260040161031f90610c09565b60048190556040518181527f532d11117b2c996f10bca057c37ee960d35e7992aafde2e83c2b9db4220f45fe90602001610378565b60408051808201909152600881526736b7b234b334b2b960c11b60208201526000546104f891906001600160a01b0316610991565b6000546001600160a01b031633146105225760405162461bcd60e51b815260040161031f90610c09565b60028054821515600160a01b0260ff60a01b199091161790556040517fb7b4d1364c10f8bcda04d589785b0aaeb7f8b526f36a6df41212357c4f8297e59061037890831515815260200190565b60408051808201909152600881526736b7b234b334b2b960c11b60208201526000546105a491906001600160a01b0316610991565b6000546001600160a01b031633146105ce5760405162461bcd60e51b815260040161031f90610c09565b600180546001600160a01b0319166001600160a01b0383169081179091556040519081527f1eb3fbc69716964d9c6d08761d12f18acac1d434fd0a110c7a97d5c9a5e1b30290602001610378565b60408051808201909152600881526736b7b234b334b2b960c11b602082015260005461065191906001600160a01b0316610991565b6000546001600160a01b0316331461067b5760405162461bcd60e51b815260040161031f90610c09565b600080546001600160a01b0319166001600160a01b0383169081179091556040805133815260208101929092527f101b8081ff3b56bbf45deb824d86a3b0fd38b7e3dd42421105cf8abe9106db0b9101610378565b60408051808201909152600881526736b7b234b334b2b960c11b602082015260005461070591906001600160a01b0316610991565b6000546001600160a01b0316331461072f5760405162461bcd60e51b815260040161031f90610c09565b60006006826040516107419190610b68565b9081526040805160209281900383019020546001600160a01b03166000818152600890935291205490915060ff1661078b5760405162461bcd60e51b815260040161031f90610bc8565b600060068360405161079d9190610b68565b908152604080516020928190038301812080546001600160a01b0319166001600160a01b03958616179055928416600090815260089092529020805460ff191690557f7a816ab1d4799c9c95920565860068126b85bf3bb66ff1d3c7fe5e72ae47b9789061080e9084908490610b84565b60405180910390a15050565b60408051808201909152600881526736b7b234b334b2b960c11b602082015260005461084f91906001600160a01b0316610991565b6000546001600160a01b031633146108795760405162461bcd60e51b815260040161031f90610c09565b60058190556040518181527ef2eed2e70302e544883dac96ecc958ad33512db918bb21dc6589676711b68a90602001610378565b60408051808201909152600881526736b7b234b334b2b960c11b60208201526000546108e291906001600160a01b0316610991565b6000546001600160a01b0316331461090c5760405162461bcd60e51b815260040161031f90610c09565b8060068360405161091d9190610b68565b908152604080516020928190038301812080546001600160a01b0319166001600160a01b03958616179055928416600090815260089092529020805460ff191660011790557f098e3bb0770728092b024bce589251930f14dfc9036a057a3202c380b28332119061080e9084908490610b84565b6109d682826040516024016109a7929190610b84565b60408051601f198184030181529190526020810180516001600160e01b031663319af33360e01b1790526109da565b5050565b80516a636f6e736f6c652e6c6f67602083016000808483855afa5050505050565b600082601f830112610a0b578081fd5b813567ffffffffffffffff80821115610a2657610a26610c70565b604051601f8301601f19908116603f01168101908282118183101715610a4e57610a4e610c70565b81604052838152866020858801011115610a66578485fd5b8360208701602083013792830160200193909352509392505050565b600060208284031215610a93578081fd5b8135610a9e81610c86565b9392505050565b600060208284031215610ab6578081fd5b81358015158114610a9e578182fd5b600060208284031215610ad6578081fd5b813567ffffffffffffffff811115610aec578182fd5b610af8848285016109fb565b949350505050565b60008060408385031215610b12578081fd5b823567ffffffffffffffff811115610b28578182fd5b610b34858286016109fb565b9250506020830135610b4581610c86565b809150509250929050565b600060208284031215610b61578081fd5b5035919050565b60008251610b7a818460208701610c40565b9190910192915050565b6040815260008351806040840152610ba3816060850160208801610c40565b6001600160a01b0393909316602083015250601f91909101601f191601606001919050565b60208082526021908201527f53746172205365656b6572733a204e6f7420612067616d6520636f6e747261636040820152601d60fa1b606082015260800190565b60208082526018908201527f53746172205365656b6572733a2041646d696e206f6e6c790000000000000000604082015260600190565b60005b83811015610c5b578181015183820152602001610c43565b83811115610c6a576000848401525b50505050565b634e487b7160e01b600052604160045260246000fd5b6001600160a01b0381168114610c9b57600080fd5b5056fea26469706673582212203811581c0e02c9ca80cf03631c89f3c89d25fd5727728da76596ecf7d60b96bc64736f6c63430008040033",
  "devdoc": {
    "kind": "dev",
    "methods": {
      "addContract(string,address)": {
        "details": "only the admin address should be able to make this change",
        "params": {
          "_address": "the address of the contract we're adding to the database",
          "_name": "contract name used when calling getters."
        }
      },
      "changeAdmin(address)": {
        "details": "only the admin address should be able to make this change",
        "params": {
          "_newAdmin": "new admin address"
        }
      },
      "removeContract(string)": {
        "details": "only the admin address should be able to make this change",
        "params": {
          "_name": "contract name that will be removed from database"
        }
      },
      "setChainlinkFeed(address)": {
        "details": "only the admin address should be able to make this change",
        "params": {
          "_feedContract": "address of the chainlink feed contract"
        }
      },
      "setFederation(address)": {
        "details": "only the admin address should be able to make this change",
        "params": {
          "_newFederationAddress": "new federation address"
        }
      },
      "setMaintenance(bool)": {
        "details": "only the admin address should be able to make this change",
        "params": {
          "_status": "boolean to set maintenance"
        }
      },
      "setSalesTax(uint256)": {
        "details": "only the admin address should be able to make this change",
        "params": {
          "_amount": "amount sales tax will be updated to"
        }
      },
      "setStartingCred(uint256)": {
        "details": "only the admin address should be able to make this change",
        "params": {
          "_amount": "new starting cred amount"
        }
      },
      "updateHasReceivedStartingCred(address)": {
        "details": "only a game contract should be able to call this function. A player can only receive CRED for the first clone created with that wallet.",
        "params": {
          "_player": "address to update"
        }
      }
    },
    "version": 1
  },
  "userdoc": {
    "kind": "user",
    "methods": {
      "addContract(string,address)": {
        "notice": "adds a contract as a registered game contract"
      },
      "changeAdmin(address)": {
        "notice": "changes the admin"
      },
      "contractAddresses(string)": {
        "notice": "contractAddresses[\"ContractName\"] => contractAddress"
      },
      "hasReceivedStartingCred(address)": {
        "notice": "hasReceivedStartingCred[playerAddress] => boolean"
      },
      "isGameContract(address)": {
        "notice": "isGameContract[contractAddress] => boolean"
      },
      "removeContract(string)": {
        "notice": "removes a contract from the database by name"
      },
      "salesTax()": {
        "notice": "usd price"
      },
      "setChainlinkFeed(address)": {
        "notice": "changes the feed for chainlink"
      },
      "setFederation(address)": {
        "notice": "changes federation address"
      },
      "setMaintenance(bool)": {
        "notice": "changes the maintenance status"
      },
      "setSalesTax(uint256)": {
        "notice": "change sales tax"
      },
      "setStartingCred(uint256)": {
        "notice": "change starting cred amount"
      },
      "startingCred()": {
        "notice": "percentage"
      },
      "updateHasReceivedStartingCred(address)": {
        "notice": "sets boolean to true when a wallet has received starting cred for creating a new clone"
      }
    },
    "version": 1
  },
  "storageLayout": {
    "storage": [
      {
        "astId": 11084,
        "contract": "src/GameManager.sol:GameManager",
        "label": "admin",
        "offset": 0,
        "slot": "0",
        "type": "t_address"
      },
      {
        "astId": 11086,
        "contract": "src/GameManager.sol:GameManager",
        "label": "chainlinkFeed",
        "offset": 0,
        "slot": "1",
        "type": "t_address"
      },
      {
        "astId": 11088,
        "contract": "src/GameManager.sol:GameManager",
        "label": "federation",
        "offset": 0,
        "slot": "2",
        "type": "t_address_payable"
      },
      {
        "astId": 11091,
        "contract": "src/GameManager.sol:GameManager",
        "label": "maintenance",
        "offset": 20,
        "slot": "2",
        "type": "t_bool"
      },
      {
        "astId": 11094,
        "contract": "src/GameManager.sol:GameManager",
        "label": "cloneCost",
        "offset": 0,
        "slot": "3",
        "type": "t_uint256"
      },
      {
        "astId": 11098,
        "contract": "src/GameManager.sol:GameManager",
        "label": "salesTax",
        "offset": 0,
        "slot": "4",
        "type": "t_uint256"
      },
      {
        "astId": 11102,
        "contract": "src/GameManager.sol:GameManager",
        "label": "startingCred",
        "offset": 0,
        "slot": "5",
        "type": "t_uint256"
      },
      {
        "astId": 11107,
        "contract": "src/GameManager.sol:GameManager",
        "label": "contractAddresses",
        "offset": 0,
        "slot": "6",
        "type": "t_mapping(t_string_memory_ptr,t_address)"
      },
      {
        "astId": 11112,
        "contract": "src/GameManager.sol:GameManager",
        "label": "hasReceivedStartingCred",
        "offset": 0,
        "slot": "7",
        "type": "t_mapping(t_address,t_bool)"
      },
      {
        "astId": 11117,
        "contract": "src/GameManager.sol:GameManager",
        "label": "isGameContract",
        "offset": 0,
        "slot": "8",
        "type": "t_mapping(t_address,t_bool)"
      }
    ],
    "types": {
      "t_address": {
        "encoding": "inplace",
        "label": "address",
        "numberOfBytes": "20"
      },
      "t_address_payable": {
        "encoding": "inplace",
        "label": "address payable",
        "numberOfBytes": "20"
      },
      "t_bool": {
        "encoding": "inplace",
        "label": "bool",
        "numberOfBytes": "1"
      },
      "t_mapping(t_address,t_bool)": {
        "encoding": "mapping",
        "key": "t_address",
        "label": "mapping(address => bool)",
        "numberOfBytes": "32",
        "value": "t_bool"
      },
      "t_mapping(t_string_memory_ptr,t_address)": {
        "encoding": "mapping",
        "key": "t_string_memory_ptr",
        "label": "mapping(string => address)",
        "numberOfBytes": "32",
        "value": "t_address"
      },
      "t_string_memory_ptr": {
        "encoding": "bytes",
        "label": "string",
        "numberOfBytes": "32"
      },
      "t_uint256": {
        "encoding": "inplace",
        "label": "uint256",
        "numberOfBytes": "32"
      }
    }
  }
}