{
  "address": "0xCE3478A9E0167a6Bc5716DC39DbbbfAc38F27623",
  "abi": [
    {
      "inputs": [
        {
          "internalType": "address",
          "name": "_gameManager",
          "type": "address"
        }
      ],
      "stateMutability": "nonpayable",
      "type": "constructor"
    },
    {
      "anonymous": false,
      "inputs": [
        {
          "indexed": false,
          "internalType": "uint256",
          "name": "skillId",
          "type": "uint256"
        }
      ],
      "name": "SkillAdded",
      "type": "event"
    },
    {
      "anonymous": false,
      "inputs": [
        {
          "indexed": false,
          "internalType": "uint256",
          "name": "skillGroupId",
          "type": "uint256"
        }
      ],
      "name": "SkillGroupAdded",
      "type": "event"
    },
    {
      "anonymous": false,
      "inputs": [
        {
          "indexed": false,
          "internalType": "uint256",
          "name": "skillId",
          "type": "uint256"
        }
      ],
      "name": "SkillRemoved",
      "type": "event"
    },
    {
      "inputs": [
        {
          "components": [
            {
              "internalType": "bool",
              "name": "dependency",
              "type": "bool"
            },
            {
              "internalType": "enum IStats.Stat",
              "name": "primary_attribute",
              "type": "uint8"
            },
            {
              "internalType": "enum IStats.Stat",
              "name": "secondary_attribute",
              "type": "uint8"
            },
            {
              "internalType": "string",
              "name": "icon",
              "type": "string"
            },
            {
              "internalType": "string",
              "name": "name",
              "type": "string"
            },
            {
              "internalType": "uint256",
              "name": "dependency_id",
              "type": "uint256"
            },
            {
              "internalType": "uint256",
              "name": "group_id",
              "type": "uint256"
            },
            {
              "internalType": "uint256",
              "name": "id",
              "type": "uint256"
            },
            {
              "internalType": "uint256",
              "name": "multiplier",
              "type": "uint256"
            },
            {
              "internalType": "uint256[5]",
              "name": "bonus_per_level",
              "type": "uint256[5]"
            }
          ],
          "internalType": "struct Skills.Skill",
          "name": "_skill",
          "type": "tuple"
        }
      ],
      "name": "addSkill",
      "outputs": [],
      "stateMutability": "nonpayable",
      "type": "function"
    },
    {
      "inputs": [
        {
          "components": [
            {
              "internalType": "uint256",
              "name": "id",
              "type": "uint256"
            },
            {
              "internalType": "string",
              "name": "name",
              "type": "string"
            }
          ],
          "internalType": "struct Skills.SkillGroup",
          "name": "_skillGroup",
          "type": "tuple"
        }
      ],
      "name": "addSkillGroup",
      "outputs": [],
      "stateMutability": "nonpayable",
      "type": "function"
    },
    {
      "inputs": [
        {
          "internalType": "uint256",
          "name": "_skillId",
          "type": "uint256"
        }
      ],
      "name": "getSkillById",
      "outputs": [
        {
          "components": [
            {
              "internalType": "bool",
              "name": "dependency",
              "type": "bool"
            },
            {
              "internalType": "enum IStats.Stat",
              "name": "primary_attribute",
              "type": "uint8"
            },
            {
              "internalType": "enum IStats.Stat",
              "name": "secondary_attribute",
              "type": "uint8"
            },
            {
              "internalType": "string",
              "name": "icon",
              "type": "string"
            },
            {
              "internalType": "string",
              "name": "name",
              "type": "string"
            },
            {
              "internalType": "uint256",
              "name": "dependency_id",
              "type": "uint256"
            },
            {
              "internalType": "uint256",
              "name": "group_id",
              "type": "uint256"
            },
            {
              "internalType": "uint256",
              "name": "id",
              "type": "uint256"
            },
            {
              "internalType": "uint256",
              "name": "multiplier",
              "type": "uint256"
            },
            {
              "internalType": "uint256[5]",
              "name": "bonus_per_level",
              "type": "uint256[5]"
            }
          ],
          "internalType": "struct Skills.Skill",
          "name": "",
          "type": "tuple"
        }
      ],
      "stateMutability": "view",
      "type": "function"
    },
    {
      "inputs": [
        {
          "internalType": "string",
          "name": "_name",
          "type": "string"
        }
      ],
      "name": "getSkillByName",
      "outputs": [
        {
          "components": [
            {
              "internalType": "bool",
              "name": "dependency",
              "type": "bool"
            },
            {
              "internalType": "enum IStats.Stat",
              "name": "primary_attribute",
              "type": "uint8"
            },
            {
              "internalType": "enum IStats.Stat",
              "name": "secondary_attribute",
              "type": "uint8"
            },
            {
              "internalType": "string",
              "name": "icon",
              "type": "string"
            },
            {
              "internalType": "string",
              "name": "name",
              "type": "string"
            },
            {
              "internalType": "uint256",
              "name": "dependency_id",
              "type": "uint256"
            },
            {
              "internalType": "uint256",
              "name": "group_id",
              "type": "uint256"
            },
            {
              "internalType": "uint256",
              "name": "id",
              "type": "uint256"
            },
            {
              "internalType": "uint256",
              "name": "multiplier",
              "type": "uint256"
            },
            {
              "internalType": "uint256[5]",
              "name": "bonus_per_level",
              "type": "uint256[5]"
            }
          ],
          "internalType": "struct Skills.Skill",
          "name": "",
          "type": "tuple"
        }
      ],
      "stateMutability": "view",
      "type": "function"
    },
    {
      "inputs": [
        {
          "internalType": "uint256",
          "name": "_skillGroupId",
          "type": "uint256"
        }
      ],
      "name": "getSkillsByGroupId",
      "outputs": [
        {
          "internalType": "uint256[]",
          "name": "",
          "type": "uint256[]"
        }
      ],
      "stateMutability": "view",
      "type": "function"
    },
    {
      "inputs": [
        {
          "internalType": "uint256",
          "name": "_skillId",
          "type": "uint256"
        }
      ],
      "name": "removeSkill",
      "outputs": [],
      "stateMutability": "nonpayable",
      "type": "function"
    }
  ],
  "transactionHash": "0xf911945f7542612b3c7fc2ed72c67492cd849eeb30c7ff0473e8ed64d1c024fb",
  "args": [
    "0x261D8c5e9742e6f7f1076Fa1F560894524e19cad"
  ],
  "numDeployments": 1,
  "solcInputHash": "dbed9630ff08f62ad5e23a1d6a18ff67",
  "bytecode": "0x608060405234801561001057600080fd5b5060405161168338038061168383398101604081905261002f91610054565b600080546001600160a01b0319166001600160a01b0392909216919091179055610082565b600060208284031215610065578081fd5b81516001600160a01b038116811461007b578182fd5b9392505050565b6115f2806100916000396000f3fe608060405234801561001057600080fd5b50600436106100625760003560e01c806337cb3def14610067578063385652411461007c5780635c0a3228146100a5578063c13c0407146100b8578063d31ea2fb146100cb578063f3c6c605146100eb575b600080fd5b61007a610075366004611308565b6100fe565b005b61008f61008a366004611142565b61065f565b60405161009c919061142e565b60405180910390f35b61008f6100b3366004611308565b6108d2565b61007a6100c6366004611206565b61092c565b6100de6100d9366004611308565b610caa565b60405161009c91906113b3565b61007a6100f936600461117d565b610d0c565b60008054906101000a90046001600160a01b03166001600160a01b031663f851a4406040518163ffffffff1660e01b815260040160206040518083038186803b15801561014a57600080fd5b505afa15801561015e573d6000803e3d6000fd5b505050506040513d601f19601f820116820180604052508101906101829190611114565b6001600160a01b0316336001600160a01b0316146101bb5760405162461bcd60e51b81526004016101b2906113f7565b60405180910390fd5b6000818152600360209081526040808320600401548352600682528083208054825181850281018501909352808352919290919083018282801561021e57602002820191906000526020600020905b81548152602001906001019080831161020a575b505050600085815260036020908152604080832081516101408101909252805460ff808216151584529798509396919550935090840191610100900416600481111561027a57634e487b7160e01b600052602160045260246000fd5b600481111561029957634e487b7160e01b600052602160045260246000fd5b8152815460209091019062010000900460ff1660048111156102cb57634e487b7160e01b600052602160045260246000fd5b60048111156102ea57634e487b7160e01b600052602160045260246000fd5b81526020016001820180546102fe9061156b565b80601f016020809104026020016040519081016040528092919081815260200182805461032a9061156b565b80156103775780601f1061034c57610100808354040283529160200191610377565b820191906000526020600020905b81548152906001019060200180831161035a57829003601f168201915b505050505081526020016002820180546103909061156b565b80601f01602080910402602001604051908101604052809291908181526020018280546103bc9061156b565b80156104095780601f106103de57610100808354040283529160200191610409565b820191906000526020600020905b8154815290600101906020018083116103ec57829003601f168201915b505050505081526020016003820154815260200160048201548152602001600582015481526020016006820154815260200160078201600580602002604051908101604052809291908260058015610476576020028201915b815481526020019060010190808311610462575b5050505050815250509050600481608001516040516104959190611397565b908152604051908190036020019020805462ffffff1916815560006104bd6001830182610e42565b6104cb600283016000610e42565b600060038301819055600483018190556005830181905560068301819055600783018190556008830181905560098301819055600a8301819055600b83015550506000838152600360205260408120805462ffffff19168155906105326001830182610e42565b610540600283016000610e42565b600060038301819055600483018190556005830181905560068301819055600783018190556008830181905560098301819055600a8301819055600b830155505060005b8251811161062657838382815181106105ad57634e487b7160e01b600052603260045260246000fd5b60200260200101511415610614578281815181106105db57634e487b7160e01b600052603260045260246000fd5b6000602091820292909201810182905285825260038152604080832060040154835260068252909120845161061292860190610e7f565b505b61061f60018261151b565b9050610584565b506040518381527f68a07aaa3176303ff1672e1849aba7628d3ade31b26f8b813a3f0ba6ec4b9f479060200160405180910390a1505050565b610667610eca565b6004826040516106779190611397565b9081526040805191829003602090810183206101408401909252815460ff80821615158552918401916101009091041660048111156106c657634e487b7160e01b600052602160045260246000fd5b60048111156106e557634e487b7160e01b600052602160045260246000fd5b8152815460209091019062010000900460ff16600481111561071757634e487b7160e01b600052602160045260246000fd5b600481111561073657634e487b7160e01b600052602160045260246000fd5b815260200160018201805461074a9061156b565b80601f01602080910402602001604051908101604052809291908181526020018280546107769061156b565b80156107c35780601f10610798576101008083540402835291602001916107c3565b820191906000526020600020905b8154815290600101906020018083116107a657829003601f168201915b505050505081526020016002820180546107dc9061156b565b80601f01602080910402602001604051908101604052809291908181526020018280546108089061156b565b80156108555780601f1061082a57610100808354040283529160200191610855565b820191906000526020600020905b81548152906001019060200180831161083857829003601f168201915b5050505050815260200160038201548152602001600482015481526020016005820154815260200160068201548152602001600782016005806020026040519081016040528092919082600580156108c2576020028201915b8154815260200190600101908083116108ae575b5050505050815250509050919050565b6108da610eca565b60008281526003602090815260409182902082516101408101909352805460ff8082161515855291928401916101009091041660048111156106c657634e487b7160e01b600052602160045260246000fd5b60008054906101000a90046001600160a01b03166001600160a01b031663f851a4406040518163ffffffff1660e01b815260040160206040518083038186803b15801561097857600080fd5b505afa15801561098c573d6000803e3d6000fd5b505050506040513d601f19601f820116820180604052508101906109b09190611114565b6001600160a01b0316336001600160a01b0316146109e05760405162461bcd60e51b81526004016101b2906113f7565b60015460e0820181905260009081526003602090815260409091208251815490151560ff198216811783559284015184939091839161ff00191661ffff1990911617610100836004811115610a4557634e487b7160e01b600052602160045260246000fd5b021790555060408201518154829062ff0000191662010000836004811115610a7d57634e487b7160e01b600052602160045260246000fd5b021790555060608201518051610a9d916001840191602090910190610f23565b5060808201518051610ab9916002840191602090910190610f23565b5060a0820151816003015560c0820151816004015560e08201518160050155610100820151816006015561012082015181600701906005610afb929190610f96565b50505060c0810151600090815260066020908152604080832060e085015181546001810183559185529290932090920155608082015190518291600491610b429190611397565b908152604051602091819003820190208251815460ff1981169115159182178355928401519192839161ffff1990911661ff001990911617610100836004811115610b9d57634e487b7160e01b600052602160045260246000fd5b021790555060408201518154829062ff0000191662010000836004811115610bd557634e487b7160e01b600052602160045260246000fd5b021790555060608201518051610bf5916001840191602090910190610f23565b5060808201518051610c11916002840191602090910190610f23565b5060a0820151816003015560c0820151816004015560e08201518160050155610100820151816006015561012082015181600701906005610c53929190610f96565b509050506001806000828254610c69919061151b565b909155505060e08101516040519081527f011b26cba5c785f27782a2b70b6536321f933f525a146222f3143c0442263f46906020015b60405180910390a150565b600081815260066020908152604091829020805483518184028101840190945280845260609392830182828015610d0057602002820191906000526020600020905b815481526020019060010190808311610cec575b50505050509050919050565b60008054906101000a90046001600160a01b03166001600160a01b031663f851a4406040518163ffffffff1660e01b815260040160206040518083038186803b158015610d5857600080fd5b505afa158015610d6c573d6000803e3d6000fd5b505050506040513d601f19601f82011682018060405250810190610d909190611114565b6001600160a01b0316336001600160a01b031614610dc05760405162461bcd60e51b81526004016101b2906113f7565b6002548082526000908152600560209081526040909120825181558183015180518493610df4926001850192910190610f23565b50905050600160026000828254610e0b919061151b565b909155505080516040519081527f121898b9b103480e71883275886aab7131f7b800b2e50a661652b3403e8a257c90602001610c9f565b508054610e4e9061156b565b6000825580601f10610e5e575050565b601f016020900490600052602060002090810190610e7c9190610fc3565b50565b828054828255906000526020600020908101928215610eba579160200282015b82811115610eba578251825591602001919060010190610e9f565b50610ec6929150610fc3565b5090565b60408051610140810190915260008082526020820190815260200160008152602001606081526020016060815260200160008152602001600081526020016000815260200160008152602001610f1e610fd8565b905290565b828054610f2f9061156b565b90600052602060002090601f016020900481019282610f515760008555610eba565b82601f10610f6a57805160ff1916838001178555610eba565b82800160010185558215610eba5791820182811115610eba578251825591602001919060010190610e9f565b8260058101928215610eba5791602002820182811115610eba578251825591602001919060010190610e9f565b5b80821115610ec65760008155600101610fc4565b6040518060a001604052806005906020820280368337509192915050565b600082601f830112611006578081fd5b60405160a0810181811067ffffffffffffffff82111715611029576110296115a6565b604052808360a0810186101561103d578384fd5b835b600581101561105e57813583526020928301929091019060010161103f565b509195945050505050565b8035801515811461107957600080fd5b919050565b80356005811061107957600080fd5b600082601f83011261109d578081fd5b813567ffffffffffffffff808211156110b8576110b86115a6565b604051601f8301601f19908116603f011681019082821181831017156110e0576110e06115a6565b816040528381528660208588010111156110f8578485fd5b8360208701602083013792830160200193909352509392505050565b600060208284031215611125578081fd5b81516001600160a01b038116811461113b578182fd5b9392505050565b600060208284031215611153578081fd5b813567ffffffffffffffff811115611169578182fd5b6111758482850161108d565b949350505050565b60006020828403121561118e578081fd5b813567ffffffffffffffff808211156111a5578283fd5b90830190604082860312156111b8578283fd5b6040516040810181811083821117156111d3576111d36115a6565b604052823581526020830135828111156111eb578485fd5b6111f78782860161108d565b60208301525095945050505050565b600060208284031215611217578081fd5b813567ffffffffffffffff8082111561122e578283fd5b908301906101c08286031215611242578283fd5b61124a6114f1565b61125383611069565b81526112616020840161107e565b60208201526112726040840161107e565b6040820152606083013582811115611288578485fd5b6112948782860161108d565b6060830152506080830135828111156112ab578485fd5b6112b78782860161108d565b60808301525060a083013560a082015260c083013560c082015260e083013560e08201526101009150818301358282015261012091506112f986838501610ff6565b91810191909152949350505050565b600060208284031215611319578081fd5b5035919050565b8060005b6005811015611343578151845260209384019390910190600101611324565b50505050565b6005811061136757634e487b7160e01b600052602160045260246000fd5b9052565b6000815180845261138381602086016020860161153f565b601f01601f19169290920160200192915050565b600082516113a981846020870161153f565b9190910192915050565b6020808252825182820181905260009190848201906040850190845b818110156113eb578351835292840192918401916001016113cf565b50909695505050505050565b60208082526018908201527f53746172205365656b6572733a2041646d696e206f6e6c790000000000000000604082015260600190565b6020815261144160208201835115159052565b600060208301516114556040840182611349565b5060408301516114686060840182611349565b5060608301516101c060808401526114846101e084018261136b565b90506080840151601f198483030160a08501526114a1828261136b565b91505060a084015160c084015260c084015160e084015260e08401516101008181860152808601519150506101208181860152808601519150506114e9610140850182611320565b509392505050565b604051610140810167ffffffffffffffff81118282101715611515576115156115a6565b60405290565b6000821982111561153a57634e487b7160e01b81526011600452602481fd5b500190565b60005b8381101561155a578181015183820152602001611542565b838111156113435750506000910152565b600181811c9082168061157f57607f821691505b602082108114156115a057634e487b7160e01b600052602260045260246000fd5b50919050565b634e487b7160e01b600052604160045260246000fdfea2646970667358221220ce05f5b0397abb0afa71fb8f2c36f45a1646f010d218d0353a0cb178aeda92d764736f6c63430008040033",
  "devdoc": {
    "kind": "dev",
    "methods": {
      "addSkill((bool,uint8,uint8,string,string,uint256,uint256,uint256,uint256,uint256[5]))": {
        "params": {
          "_skill": "Skill struct"
        }
      },
      "addSkillGroup((uint256,string))": {
        "params": {
          "_skillGroup": "SkillGroup struct"
        }
      },
      "getSkillById(uint256)": {
        "params": {
          "_skillId": "skill id"
        },
        "returns": {
          "_0": "Skill struct"
        }
      },
      "getSkillByName(string)": {
        "params": {
          "_name": "string name of skill lookup"
        },
        "returns": {
          "_0": "Skill struct"
        }
      },
      "getSkillsByGroupId(uint256)": {
        "params": {
          "_skillGroupId": "skill group id"
        },
        "returns": {
          "_0": "uint256[] array of skill ids"
        }
      },
      "removeSkill(uint256)": {
        "params": {
          "_skillId": "skill id"
        }
      }
    },
    "version": 1
  },
  "userdoc": {
    "events": {
      "SkillAdded(uint256)": {
        "notice": "emitted when a new skill is added to the database by the admin;"
      },
      "SkillGroupAdded(uint256)": {
        "notice": "emitted when a new skill group is added to the database by the admin;"
      },
      "SkillRemoved(uint256)": {
        "notice": "emitted when a new skill is removed from the database by the admin;"
      }
    },
    "kind": "user",
    "methods": {
      "addSkill((bool,uint8,uint8,string,string,uint256,uint256,uint256,uint256,uint256[5]))": {
        "notice": "adds a new skill to the database of trainable skills and adds it to a skill group"
      },
      "addSkillGroup((uint256,string))": {
        "notice": "adds a new skill group to the database"
      },
      "getSkillById(uint256)": {
        "notice": "get a Skill struct by id"
      },
      "getSkillByName(string)": {
        "notice": "gets a Skill by name"
      },
      "getSkillsByGroupId(uint256)": {
        "notice": "get skills by group id"
      },
      "removeSkill(uint256)": {
        "notice": "removes a skill from the database and removes it from the skillgroup"
      }
    },
    "version": 1
  },
  "storageLayout": {
    "storage": [
      {
        "astId": 12760,
        "contract": "src/Skills.sol:Skills",
        "label": "gameManager",
        "offset": 0,
        "slot": "0",
        "type": "t_contract(GameManager)11452"
      },
      {
        "astId": 12095,
        "contract": "src/Skills.sol:Skills",
        "label": "skillIndex",
        "offset": 0,
        "slot": "1",
        "type": "t_uint256"
      },
      {
        "astId": 12097,
        "contract": "src/Skills.sol:Skills",
        "label": "skillGroupIndex",
        "offset": 0,
        "slot": "2",
        "type": "t_uint256"
      },
      {
        "astId": 12128,
        "contract": "src/Skills.sol:Skills",
        "label": "skillById",
        "offset": 0,
        "slot": "3",
        "type": "t_mapping(t_uint256,t_struct(Skill)12122_storage)"
      },
      {
        "astId": 12134,
        "contract": "src/Skills.sol:Skills",
        "label": "skillByName",
        "offset": 0,
        "slot": "4",
        "type": "t_mapping(t_string_memory_ptr,t_struct(Skill)12122_storage)"
      },
      {
        "astId": 12145,
        "contract": "src/Skills.sol:Skills",
        "label": "skillGroupById",
        "offset": 0,
        "slot": "5",
        "type": "t_mapping(t_uint256,t_struct(SkillGroup)12139_storage)"
      },
      {
        "astId": 12151,
        "contract": "src/Skills.sol:Skills",
        "label": "skillsByGroupId",
        "offset": 0,
        "slot": "6",
        "type": "t_mapping(t_uint256,t_array(t_uint256)dyn_storage)"
      }
    ],
    "types": {
      "t_array(t_uint256)5_storage": {
        "base": "t_uint256",
        "encoding": "inplace",
        "label": "uint256[5]",
        "numberOfBytes": "160"
      },
      "t_array(t_uint256)dyn_storage": {
        "base": "t_uint256",
        "encoding": "dynamic_array",
        "label": "uint256[]",
        "numberOfBytes": "32"
      },
      "t_bool": {
        "encoding": "inplace",
        "label": "bool",
        "numberOfBytes": "1"
      },
      "t_contract(GameManager)11452": {
        "encoding": "inplace",
        "label": "contract GameManager",
        "numberOfBytes": "20"
      },
      "t_enum(Stat)12751": {
        "encoding": "inplace",
        "label": "enum IStats.Stat",
        "numberOfBytes": "1"
      },
      "t_mapping(t_string_memory_ptr,t_struct(Skill)12122_storage)": {
        "encoding": "mapping",
        "key": "t_string_memory_ptr",
        "label": "mapping(string => struct Skills.Skill)",
        "numberOfBytes": "32",
        "value": "t_struct(Skill)12122_storage"
      },
      "t_mapping(t_uint256,t_array(t_uint256)dyn_storage)": {
        "encoding": "mapping",
        "key": "t_uint256",
        "label": "mapping(uint256 => uint256[])",
        "numberOfBytes": "32",
        "value": "t_array(t_uint256)dyn_storage"
      },
      "t_mapping(t_uint256,t_struct(Skill)12122_storage)": {
        "encoding": "mapping",
        "key": "t_uint256",
        "label": "mapping(uint256 => struct Skills.Skill)",
        "numberOfBytes": "32",
        "value": "t_struct(Skill)12122_storage"
      },
      "t_mapping(t_uint256,t_struct(SkillGroup)12139_storage)": {
        "encoding": "mapping",
        "key": "t_uint256",
        "label": "mapping(uint256 => struct Skills.SkillGroup)",
        "numberOfBytes": "32",
        "value": "t_struct(SkillGroup)12139_storage"
      },
      "t_string_memory_ptr": {
        "encoding": "bytes",
        "label": "string",
        "numberOfBytes": "32"
      },
      "t_string_storage": {
        "encoding": "bytes",
        "label": "string",
        "numberOfBytes": "32"
      },
      "t_struct(Skill)12122_storage": {
        "encoding": "inplace",
        "label": "struct Skills.Skill",
        "members": [
          {
            "astId": 12099,
            "contract": "src/Skills.sol:Skills",
            "label": "dependency",
            "offset": 0,
            "slot": "0",
            "type": "t_bool"
          },
          {
            "astId": 12102,
            "contract": "src/Skills.sol:Skills",
            "label": "primary_attribute",
            "offset": 1,
            "slot": "0",
            "type": "t_enum(Stat)12751"
          },
          {
            "astId": 12105,
            "contract": "src/Skills.sol:Skills",
            "label": "secondary_attribute",
            "offset": 2,
            "slot": "0",
            "type": "t_enum(Stat)12751"
          },
          {
            "astId": 12107,
            "contract": "src/Skills.sol:Skills",
            "label": "icon",
            "offset": 0,
            "slot": "1",
            "type": "t_string_storage"
          },
          {
            "astId": 12109,
            "contract": "src/Skills.sol:Skills",
            "label": "name",
            "offset": 0,
            "slot": "2",
            "type": "t_string_storage"
          },
          {
            "astId": 12111,
            "contract": "src/Skills.sol:Skills",
            "label": "dependency_id",
            "offset": 0,
            "slot": "3",
            "type": "t_uint256"
          },
          {
            "astId": 12113,
            "contract": "src/Skills.sol:Skills",
            "label": "group_id",
            "offset": 0,
            "slot": "4",
            "type": "t_uint256"
          },
          {
            "astId": 12115,
            "contract": "src/Skills.sol:Skills",
            "label": "id",
            "offset": 0,
            "slot": "5",
            "type": "t_uint256"
          },
          {
            "astId": 12117,
            "contract": "src/Skills.sol:Skills",
            "label": "multiplier",
            "offset": 0,
            "slot": "6",
            "type": "t_uint256"
          },
          {
            "astId": 12121,
            "contract": "src/Skills.sol:Skills",
            "label": "bonus_per_level",
            "offset": 0,
            "slot": "7",
            "type": "t_array(t_uint256)5_storage"
          }
        ],
        "numberOfBytes": "384"
      },
      "t_struct(SkillGroup)12139_storage": {
        "encoding": "inplace",
        "label": "struct Skills.SkillGroup",
        "members": [
          {
            "astId": 12136,
            "contract": "src/Skills.sol:Skills",
            "label": "id",
            "offset": 0,
            "slot": "0",
            "type": "t_uint256"
          },
          {
            "astId": 12138,
            "contract": "src/Skills.sol:Skills",
            "label": "name",
            "offset": 0,
            "slot": "1",
            "type": "t_string_storage"
          }
        ],
        "numberOfBytes": "64"
      },
      "t_uint256": {
        "encoding": "inplace",
        "label": "uint256",
        "numberOfBytes": "32"
      }
    }
  }
}